{"contracts/transfers-production/BulkPayroll.sol":{"BulkPayroll":{"abi":[{"inputs":[],"name":"InsufficientAllowance","type":"error"},{"inputs":[],"name":"InsufficientBalance","type":"error"},{"inputs":[],"name":"LengthMismatch","type":"error"},{"inputs":[],"name":"ReentrancyGuardReentrantCall","type":"error"},{"inputs":[],"name":"RefundFailed","type":"error"},{"inputs":[{"internalType":"address","name":"token","type":"address"}],"name":"SafeERC20FailedOperation","type":"error"},{"inputs":[],"name":"TransferFailed","type":"error"},{"anonymous":false,"inputs":[{"indexed":true,"internalType":"address","name":"sender","type":"address"},{"indexed":true,"internalType":"address","name":"token","type":"address"},{"indexed":false,"internalType":"uint256","name":"totalRecipients","type":"uint256"},{"indexed":false,"internalType":"uint256","name":"totalAmount","type":"uint256"}],"name":"BulkTransferExecuted","type":"event"},{"inputs":[{"internalType":"address","name":"token","type":"address"},{"internalType":"address[]","name":"recipients","type":"address[]"},{"internalType":"uint256[]","name":"amounts","type":"uint256[]"}],"name":"bulkTransfer","outputs":[],"stateMutability":"payable","type":"function"}],"evm":{"bytecode":{"linkReferences":{},"object":"6080604052348015600f57600080fd5b506001600081905550610ab1806100276000396000f3fe60806040526004361061001e5760003560e01c8063e886dade14610023575b600080fd5b61003d60048036038101906100389190610788565b61003f565b005b610047610197565b600084849050905082829050811461008b576040517fff633a3800000000000000000000000000000000000000000000000000000000815260040160405180910390fd5b6000805b828110156100c9578484828181106100aa576100a961081d565b5b90506020020135826100bc9190610885565b915080600101905061008f565b50600073ffffffffffffffffffffffffffffffffffffffff168773ffffffffffffffffffffffffffffffffffffffff16036101105761010b81878787876101dd565b61011f565b61011e878288888888610325565b5b8673ffffffffffffffffffffffffffffffffffffffff163373ffffffffffffffffffffffffffffffffffffffff167fb08c62751f0c97f86ef37a4fa2bdb07aa8f67f0c26a5c87ed7973e85a4c6d19b848460405161017e9291906108c8565b60405180910390a35050610190610475565b5050505050565b6002600054036101d3576040517f3ee5aeb500000000000000000000000000000000000000000000000000000000815260040160405180910390fd5b6002600081905550565b84341015610217576040517ff4d678b800000000000000000000000000000000000000000000000000000000815260040160405180910390fd5b60005b8484905081101561031457600085858381811061023a5761023961081d565b5b905060200201602081019061024f91906108f1565b73ffffffffffffffffffffffffffffffffffffffff168484848181106102785761027761081d565b5b9050602002013560405161028b9061094f565b60006040518083038185875af1925050503d80600081146102c8576040519150601f19603f3d011682016040523d82523d6000602084013e6102cd565b606091505b5050905080610308576040517f90b8ec1800000000000000000000000000000000000000000000000000000000815260040160405180910390fd5b8160010191505061021a565b5061031e8561047f565b5050505050565b600086905060008173ffffffffffffffffffffffffffffffffffffffff1663dd62ed3e33306040518363ffffffff1660e01b8152600401610367929190610973565b602060405180830381865afa158015610384573d6000803e3d6000fd5b505050506040513d601f19601f820116820180604052508101906103a891906109c8565b9050868110156103e4576040517f13be252b00000000000000000000000000000000000000000000000000000000815260040160405180910390fd5b60005b8686905081101561046a5761045f338888848181106104095761040861081d565b5b905060200201602081019061041e91906108f1565b8787858181106104315761043061081d565b5b905060200201358673ffffffffffffffffffffffffffffffffffffffff16610541909392919063ffffffff16565b8060010190506103e7565b505050505050505050565b6001600081905550565b6000813461048d91906109f5565b9050600081111561053d5760003373ffffffffffffffffffffffffffffffffffffffff16826040516104be9061094f565b60006040518083038185875af1925050503d80600081146104fb576040519150601f19603f3d011682016040523d82523d6000602084013e610500565b606091505b505090508061053b576040517ff0c49d4400000000000000000000000000000000000000000000000000000000815260040160405180910390fd5b505b5050565b6105bd848573ffffffffffffffffffffffffffffffffffffffff166323b872dd86868660405160240161057693929190610a29565b604051602081830303815290604052915060e01b6020820180517bffffffffffffffffffffffffffffffffffffffffffffffffffffffff83818316178352505050506105c3565b50505050565b600080602060008451602086016000885af1806105e6576040513d6000823e3d81fd5b3d92506000519150506000821461060157600181141561061d565b60008473ffffffffffffffffffffffffffffffffffffffff163b145b1561065f57836040517f5274afe70000000000000000000000000000000000000000000000000000000081526004016106569190610a60565b60405180910390fd5b50505050565b600080fd5b600080fd5b600073ffffffffffffffffffffffffffffffffffffffff82169050919050565b600061069a8261066f565b9050919050565b6106aa8161068f565b81146106b557600080fd5b50565b6000813590506106c7816106a1565b92915050565b600080fd5b600080fd5b600080fd5b60008083601f8401126106f2576106f16106cd565b5b8235905067ffffffffffffffff81111561070f5761070e6106d2565b5b60208301915083602082028301111561072b5761072a6106d7565b5b9250929050565b60008083601f840112610748576107476106cd565b5b8235905067ffffffffffffffff811115610765576107646106d2565b5b602083019150836020820283011115610781576107806106d7565b5b9250929050565b6000806000806000606086880312156107a4576107a3610665565b5b60006107b2888289016106b8565b955050602086013567ffffffffffffffff8111156107d3576107d261066a565b5b6107df888289016106dc565b9450945050604086013567ffffffffffffffff8111156108025761080161066a565b5b61080e88828901610732565b92509250509295509295909350565b7f4e487b7100000000000000000000000000000000000000000000000000000000600052603260045260246000fd5b6000819050919050565b7f4e487b7100000000000000000000000000000000000000000000000000000000600052601160045260246000fd5b60006108908261084c565b915061089b8361084c565b92508282019050808211156108b3576108b2610856565b5b92915050565b6108c28161084c565b82525050565b60006040820190506108dd60008301856108b9565b6108ea60208301846108b9565b9392505050565b60006020828403121561090757610906610665565b5b6000610915848285016106b8565b91505092915050565b600081905092915050565b50565b600061093960008361091e565b915061094482610929565b600082019050919050565b600061095a8261092c565b9150819050919050565b61096d8161068f565b82525050565b60006040820190506109886000830185610964565b6109956020830184610964565b9392505050565b6109a58161084c565b81146109b057600080fd5b50565b6000815190506109c28161099c565b92915050565b6000602082840312156109de576109dd610665565b5b60006109ec848285016109b3565b91505092915050565b6000610a008261084c565b9150610a0b8361084c565b9250828203905081811115610a2357610a22610856565b5b92915050565b6000606082019050610a3e6000830186610964565b610a4b6020830185610964565b610a5860408301846108b9565b949350505050565b6000602082019050610a756000830184610964565b9291505056fea2646970667358221220d990d7d2cab51bf6bf4263eb2423aa0ac24ba5d89759dcaf1f710074f3cd0f4664736f6c634300081b0033","opcodes":"PUSH1 0x80 PUSH1 0x40 MSTORE CALLVALUE DUP1 ISZERO PUSH1 0xF JUMPI PUSH1 0x0 DUP1 REVERT JUMPDEST POP PUSH1 0x1 PUSH1 0x0 DUP2 SWAP1 SSTORE POP PUSH2 0xAB1 DUP1 PUSH2 0x27 PUSH1 0x0 CODECOPY PUSH1 0x0 RETURN INVALID PUSH1 0x80 PUSH1 0x40 MSTORE PUSH1 0x4 CALLDATASIZE LT PUSH2 0x1E JUMPI PUSH1 0x0 CALLDATALOAD PUSH1 0xE0 SHR DUP1 PUSH4 0xE886DADE EQ PUSH2 0x23 JUMPI JUMPDEST PUSH1 0x0 DUP1 REVERT JUMPDEST PUSH2 0x3D PUSH1 0x4 DUP1 CALLDATASIZE SUB DUP2 ADD SWAP1 PUSH2 0x38 SWAP2 SWAP1 PUSH2 0x788 JUMP JUMPDEST PUSH2 0x3F JUMP JUMPDEST STOP JUMPDEST PUSH2 0x47 PUSH2 0x197 JUMP JUMPDEST PUSH1 0x0 DUP5 DUP5 SWAP1 POP SWAP1 POP DUP3 DUP3 SWAP1 POP DUP2 EQ PUSH2 0x8B JUMPI PUSH1 0x40 MLOAD PUSH32 0xFF633A3800000000000000000000000000000000000000000000000000000000 DUP2 MSTORE PUSH1 0x4 ADD PUSH1 0x40 MLOAD DUP1 SWAP2 SUB SWAP1 REVERT JUMPDEST PUSH1 0x0 DUP1 JUMPDEST DUP3 DUP2 LT ISZERO PUSH2 0xC9 JUMPI DUP5 DUP5 DUP3 DUP2 DUP2 LT PUSH2 0xAA JUMPI PUSH2 0xA9 PUSH2 0x81D JUMP JUMPDEST JUMPDEST SWAP1 POP PUSH1 0x20 MUL ADD CALLDATALOAD DUP3 PUSH2 0xBC SWAP2 SWAP1 PUSH2 0x885 JUMP JUMPDEST SWAP2 POP DUP1 PUSH1 0x1 ADD SWAP1 POP PUSH2 0x8F JUMP JUMPDEST POP PUSH1 0x0 PUSH20 0xFFFFFFFFFFFFFFFFFFFFFFFFFFFFFFFFFFFFFFFF AND DUP8 PUSH20 0xFFFFFFFFFFFFFFFFFFFFFFFFFFFFFFFFFFFFFFFF AND SUB PUSH2 0x110 JUMPI PUSH2 0x10B DUP2 DUP8 DUP8 DUP8 DUP8 PUSH2 0x1DD JUMP JUMPDEST PUSH2 0x11F JUMP JUMPDEST PUSH2 0x11E DUP8 DUP3 DUP9 DUP9 DUP9 DUP9 PUSH2 0x325 JUMP JUMPDEST JUMPDEST DUP7 PUSH20 0xFFFFFFFFFFFFFFFFFFFFFFFFFFFFFFFFFFFFFFFF AND CALLER PUSH20 0xFFFFFFFFFFFFFFFFFFFFFFFFFFFFFFFFFFFFFFFF AND PUSH32 0xB08C62751F0C97F86EF37A4FA2BDB07AA8F67F0C26A5C87ED7973E85A4C6D19B DUP5 DUP5 PUSH1 0x40 MLOAD PUSH2 0x17E SWAP3 SWAP2 SWAP1 PUSH2 0x8C8 JUMP JUMPDEST PUSH1 0x40 MLOAD DUP1 SWAP2 SUB SWAP1 LOG3 POP POP PUSH2 0x190 PUSH2 0x475 JUMP JUMPDEST POP POP POP POP POP JUMP JUMPDEST PUSH1 0x2 PUSH1 0x0 SLOAD SUB PUSH2 0x1D3 JUMPI PUSH1 0x40 MLOAD PUSH32 0x3EE5AEB500000000000000000000000000000000000000000000000000000000 DUP2 MSTORE PUSH1 0x4 ADD PUSH1 0x40 MLOAD DUP1 SWAP2 SUB SWAP1 REVERT JUMPDEST PUSH1 0x2 PUSH1 0x0 DUP2 SWAP1 SSTORE POP JUMP JUMPDEST DUP5 CALLVALUE LT ISZERO PUSH2 0x217 JUMPI PUSH1 0x40 MLOAD PUSH32 0xF4D678B800000000000000000000000000000000000000000000000000000000 DUP2 MSTORE PUSH1 0x4 ADD PUSH1 0x40 MLOAD DUP1 SWAP2 SUB SWAP1 REVERT JUMPDEST PUSH1 0x0 JUMPDEST DUP5 DUP5 SWAP1 POP DUP2 LT ISZERO PUSH2 0x314 JUMPI PUSH1 0x0 DUP6 DUP6 DUP4 DUP2 DUP2 LT PUSH2 0x23A JUMPI PUSH2 0x239 PUSH2 0x81D JUMP JUMPDEST JUMPDEST SWAP1 POP PUSH1 0x20 MUL ADD PUSH1 0x20 DUP2 ADD SWAP1 PUSH2 0x24F SWAP2 SWAP1 PUSH2 0x8F1 JUMP JUMPDEST PUSH20 0xFFFFFFFFFFFFFFFFFFFFFFFFFFFFFFFFFFFFFFFF AND DUP5 DUP5 DUP5 DUP2 DUP2 LT PUSH2 0x278 JUMPI PUSH2 0x277 PUSH2 0x81D JUMP JUMPDEST JUMPDEST SWAP1 POP PUSH1 0x20 MUL ADD CALLDATALOAD PUSH1 0x40 MLOAD PUSH2 0x28B SWAP1 PUSH2 0x94F JUMP JUMPDEST PUSH1 0x0 PUSH1 0x40 MLOAD DUP1 DUP4 SUB DUP2 DUP6 DUP8 GAS CALL SWAP3 POP POP POP RETURNDATASIZE DUP1 PUSH1 0x0 DUP2 EQ PUSH2 0x2C8 JUMPI PUSH1 0x40 MLOAD SWAP2 POP PUSH1 0x1F NOT PUSH1 0x3F RETURNDATASIZE ADD AND DUP3 ADD PUSH1 0x40 MSTORE RETURNDATASIZE DUP3 MSTORE RETURNDATASIZE PUSH1 0x0 PUSH1 0x20 DUP5 ADD RETURNDATACOPY PUSH2 0x2CD JUMP JUMPDEST PUSH1 0x60 SWAP2 POP JUMPDEST POP POP SWAP1 POP DUP1 PUSH2 0x308 JUMPI PUSH1 0x40 MLOAD PUSH32 0x90B8EC1800000000000000000000000000000000000000000000000000000000 DUP2 MSTORE PUSH1 0x4 ADD PUSH1 0x40 MLOAD DUP1 SWAP2 SUB SWAP1 REVERT JUMPDEST DUP2 PUSH1 0x1 ADD SWAP2 POP POP PUSH2 0x21A JUMP JUMPDEST POP PUSH2 0x31E DUP6 PUSH2 0x47F JUMP JUMPDEST POP POP POP POP POP JUMP JUMPDEST PUSH1 0x0 DUP7 SWAP1 POP PUSH1 0x0 DUP2 PUSH20 0xFFFFFFFFFFFFFFFFFFFFFFFFFFFFFFFFFFFFFFFF AND PUSH4 0xDD62ED3E CALLER ADDRESS PUSH1 0x40 MLOAD DUP4 PUSH4 0xFFFFFFFF AND PUSH1 0xE0 SHL DUP2 MSTORE PUSH1 0x4 ADD PUSH2 0x367 SWAP3 SWAP2 SWAP1 PUSH2 0x973 JUMP JUMPDEST PUSH1 0x20 PUSH1 0x40 MLOAD DUP1 DUP4 SUB DUP2 DUP7 GAS STATICCALL ISZERO DUP1 ISZERO PUSH2 0x384 JUMPI RETURNDATASIZE PUSH1 0x0 DUP1 RETURNDATACOPY RETURNDATASIZE PUSH1 0x0 REVERT JUMPDEST POP POP POP POP PUSH1 0x40 MLOAD RETURNDATASIZE PUSH1 0x1F NOT PUSH1 0x1F DUP3 ADD AND DUP3 ADD DUP1 PUSH1 0x40 MSTORE POP DUP2 ADD SWAP1 PUSH2 0x3A8 SWAP2 SWAP1 PUSH2 0x9C8 JUMP JUMPDEST SWAP1 POP DUP7 DUP2 LT ISZERO PUSH2 0x3E4 JUMPI PUSH1 0x40 MLOAD PUSH32 0x13BE252B00000000000000000000000000000000000000000000000000000000 DUP2 MSTORE PUSH1 0x4 ADD PUSH1 0x40 MLOAD DUP1 SWAP2 SUB SWAP1 REVERT JUMPDEST PUSH1 0x0 JUMPDEST DUP7 DUP7 SWAP1 POP DUP2 LT ISZERO PUSH2 0x46A JUMPI PUSH2 0x45F CALLER DUP9 DUP9 DUP5 DUP2 DUP2 LT PUSH2 0x409 JUMPI PUSH2 0x408 PUSH2 0x81D JUMP JUMPDEST JUMPDEST SWAP1 POP PUSH1 0x20 MUL ADD PUSH1 0x20 DUP2 ADD SWAP1 PUSH2 0x41E SWAP2 SWAP1 PUSH2 0x8F1 JUMP JUMPDEST DUP8 DUP8 DUP6 DUP2 DUP2 LT PUSH2 0x431 JUMPI PUSH2 0x430 PUSH2 0x81D JUMP JUMPDEST JUMPDEST SWAP1 POP PUSH1 0x20 MUL ADD CALLDATALOAD DUP7 PUSH20 0xFFFFFFFFFFFFFFFFFFFFFFFFFFFFFFFFFFFFFFFF AND PUSH2 0x541 SWAP1 SWAP4 SWAP3 SWAP2 SWAP1 PUSH4 0xFFFFFFFF AND JUMP JUMPDEST DUP1 PUSH1 0x1 ADD SWAP1 POP PUSH2 0x3E7 JUMP JUMPDEST POP POP POP POP POP POP POP POP POP JUMP JUMPDEST PUSH1 0x1 PUSH1 0x0 DUP2 SWAP1 SSTORE POP JUMP JUMPDEST PUSH1 0x0 DUP2 CALLVALUE PUSH2 0x48D SWAP2 SWAP1 PUSH2 0x9F5 JUMP JUMPDEST SWAP1 POP PUSH1 0x0 DUP2 GT ISZERO PUSH2 0x53D JUMPI PUSH1 0x0 CALLER PUSH20 0xFFFFFFFFFFFFFFFFFFFFFFFFFFFFFFFFFFFFFFFF AND DUP3 PUSH1 0x40 MLOAD PUSH2 0x4BE SWAP1 PUSH2 0x94F JUMP JUMPDEST PUSH1 0x0 PUSH1 0x40 MLOAD DUP1 DUP4 SUB DUP2 DUP6 DUP8 GAS CALL SWAP3 POP POP POP RETURNDATASIZE DUP1 PUSH1 0x0 DUP2 EQ PUSH2 0x4FB JUMPI PUSH1 0x40 MLOAD SWAP2 POP PUSH1 0x1F NOT PUSH1 0x3F RETURNDATASIZE ADD AND DUP3 ADD PUSH1 0x40 MSTORE RETURNDATASIZE DUP3 MSTORE RETURNDATASIZE PUSH1 0x0 PUSH1 0x20 DUP5 ADD RETURNDATACOPY PUSH2 0x500 JUMP JUMPDEST PUSH1 0x60 SWAP2 POP JUMPDEST POP POP SWAP1 POP DUP1 PUSH2 0x53B JUMPI PUSH1 0x40 MLOAD PUSH32 0xF0C49D4400000000000000000000000000000000000000000000000000000000 DUP2 MSTORE PUSH1 0x4 ADD PUSH1 0x40 MLOAD DUP1 SWAP2 SUB SWAP1 REVERT JUMPDEST POP JUMPDEST POP POP JUMP JUMPDEST PUSH2 0x5BD DUP5 DUP6 PUSH20 0xFFFFFFFFFFFFFFFFFFFFFFFFFFFFFFFFFFFFFFFF AND PUSH4 0x23B872DD DUP7 DUP7 DUP7 PUSH1 0x40 MLOAD PUSH1 0x24 ADD PUSH2 0x576 SWAP4 SWAP3 SWAP2 SWAP1 PUSH2 0xA29 JUMP JUMPDEST PUSH1 0x40 MLOAD PUSH1 0x20 DUP2 DUP4 SUB SUB DUP2 MSTORE SWAP1 PUSH1 0x40 MSTORE SWAP2 POP PUSH1 0xE0 SHL PUSH1 0x20 DUP3 ADD DUP1 MLOAD PUSH28 0xFFFFFFFFFFFFFFFFFFFFFFFFFFFFFFFFFFFFFFFFFFFFFFFFFFFFFFFF DUP4 DUP2 DUP4 AND OR DUP4 MSTORE POP POP POP POP PUSH2 0x5C3 JUMP JUMPDEST POP POP POP POP JUMP JUMPDEST PUSH1 0x0 DUP1 PUSH1 0x20 PUSH1 0x0 DUP5 MLOAD PUSH1 0x20 DUP7 ADD PUSH1 0x0 DUP9 GAS CALL DUP1 PUSH2 0x5E6 JUMPI PUSH1 0x40 MLOAD RETURNDATASIZE PUSH1 0x0 DUP3 RETURNDATACOPY RETURNDATASIZE DUP2 REVERT JUMPDEST RETURNDATASIZE SWAP3 POP PUSH1 0x0 MLOAD SWAP2 POP POP PUSH1 0x0 DUP3 EQ PUSH2 0x601 JUMPI PUSH1 0x1 DUP2 EQ ISZERO PUSH2 0x61D JUMP JUMPDEST PUSH1 0x0 DUP5 PUSH20 0xFFFFFFFFFFFFFFFFFFFFFFFFFFFFFFFFFFFFFFFF AND EXTCODESIZE EQ JUMPDEST ISZERO PUSH2 0x65F JUMPI DUP4 PUSH1 0x40 MLOAD PUSH32 0x5274AFE700000000000000000000000000000000000000000000000000000000 DUP2 MSTORE PUSH1 0x4 ADD PUSH2 0x656 SWAP2 SWAP1 PUSH2 0xA60 JUMP JUMPDEST PUSH1 0x40 MLOAD DUP1 SWAP2 SUB SWAP1 REVERT JUMPDEST POP POP POP POP JUMP JUMPDEST PUSH1 0x0 DUP1 REVERT JUMPDEST PUSH1 0x0 DUP1 REVERT JUMPDEST PUSH1 0x0 PUSH20 0xFFFFFFFFFFFFFFFFFFFFFFFFFFFFFFFFFFFFFFFF DUP3 AND SWAP1 POP SWAP2 SWAP1 POP JUMP JUMPDEST PUSH1 0x0 PUSH2 0x69A DUP3 PUSH2 0x66F JUMP JUMPDEST SWAP1 POP SWAP2 SWAP1 POP JUMP JUMPDEST PUSH2 0x6AA DUP2 PUSH2 0x68F JUMP JUMPDEST DUP2 EQ PUSH2 0x6B5 JUMPI PUSH1 0x0 DUP1 REVERT JUMPDEST POP JUMP JUMPDEST PUSH1 0x0 DUP2 CALLDATALOAD SWAP1 POP PUSH2 0x6C7 DUP2 PUSH2 0x6A1 JUMP JUMPDEST SWAP3 SWAP2 POP POP JUMP JUMPDEST PUSH1 0x0 DUP1 REVERT JUMPDEST PUSH1 0x0 DUP1 REVERT JUMPDEST PUSH1 0x0 DUP1 REVERT JUMPDEST PUSH1 0x0 DUP1 DUP4 PUSH1 0x1F DUP5 ADD SLT PUSH2 0x6F2 JUMPI PUSH2 0x6F1 PUSH2 0x6CD JUMP JUMPDEST JUMPDEST DUP3 CALLDATALOAD SWAP1 POP PUSH8 0xFFFFFFFFFFFFFFFF DUP2 GT ISZERO PUSH2 0x70F JUMPI PUSH2 0x70E PUSH2 0x6D2 JUMP JUMPDEST JUMPDEST PUSH1 0x20 DUP4 ADD SWAP2 POP DUP4 PUSH1 0x20 DUP3 MUL DUP4 ADD GT ISZERO PUSH2 0x72B JUMPI PUSH2 0x72A PUSH2 0x6D7 JUMP JUMPDEST JUMPDEST SWAP3 POP SWAP3 SWAP1 POP JUMP JUMPDEST PUSH1 0x0 DUP1 DUP4 PUSH1 0x1F DUP5 ADD SLT PUSH2 0x748 JUMPI PUSH2 0x747 PUSH2 0x6CD JUMP JUMPDEST JUMPDEST DUP3 CALLDATALOAD SWAP1 POP PUSH8 0xFFFFFFFFFFFFFFFF DUP2 GT ISZERO PUSH2 0x765 JUMPI PUSH2 0x764 PUSH2 0x6D2 JUMP JUMPDEST JUMPDEST PUSH1 0x20 DUP4 ADD SWAP2 POP DUP4 PUSH1 0x20 DUP3 MUL DUP4 ADD GT ISZERO PUSH2 0x781 JUMPI PUSH2 0x780 PUSH2 0x6D7 JUMP JUMPDEST JUMPDEST SWAP3 POP SWAP3 SWAP1 POP JUMP JUMPDEST PUSH1 0x0 DUP1 PUSH1 0x0 DUP1 PUSH1 0x0 PUSH1 0x60 DUP7 DUP9 SUB SLT ISZERO PUSH2 0x7A4 JUMPI PUSH2 0x7A3 PUSH2 0x665 JUMP JUMPDEST JUMPDEST PUSH1 0x0 PUSH2 0x7B2 DUP9 DUP3 DUP10 ADD PUSH2 0x6B8 JUMP JUMPDEST SWAP6 POP POP PUSH1 0x20 DUP7 ADD CALLDATALOAD PUSH8 0xFFFFFFFFFFFFFFFF DUP2 GT ISZERO PUSH2 0x7D3 JUMPI PUSH2 0x7D2 PUSH2 0x66A JUMP JUMPDEST JUMPDEST PUSH2 0x7DF DUP9 DUP3 DUP10 ADD PUSH2 0x6DC JUMP JUMPDEST SWAP5 POP SWAP5 POP POP PUSH1 0x40 DUP7 ADD CALLDATALOAD PUSH8 0xFFFFFFFFFFFFFFFF DUP2 GT ISZERO PUSH2 0x802 JUMPI PUSH2 0x801 PUSH2 0x66A JUMP JUMPDEST JUMPDEST PUSH2 0x80E DUP9 DUP3 DUP10 ADD PUSH2 0x732 JUMP JUMPDEST SWAP3 POP SWAP3 POP POP SWAP3 SWAP6 POP SWAP3 SWAP6 SWAP1 SWAP4 POP JUMP JUMPDEST PUSH32 0x4E487B7100000000000000000000000000000000000000000000000000000000 PUSH1 0x0 MSTORE PUSH1 0x32 PUSH1 0x4 MSTORE PUSH1 0x24 PUSH1 0x0 REVERT JUMPDEST PUSH1 0x0 DUP2 SWAP1 POP SWAP2 SWAP1 POP JUMP JUMPDEST PUSH32 0x4E487B7100000000000000000000000000000000000000000000000000000000 PUSH1 0x0 MSTORE PUSH1 0x11 PUSH1 0x4 MSTORE PUSH1 0x24 PUSH1 0x0 REVERT JUMPDEST PUSH1 0x0 PUSH2 0x890 DUP3 PUSH2 0x84C JUMP JUMPDEST SWAP2 POP PUSH2 0x89B DUP4 PUSH2 0x84C JUMP JUMPDEST SWAP3 POP DUP3 DUP3 ADD SWAP1 POP DUP1 DUP3 GT ISZERO PUSH2 0x8B3 JUMPI PUSH2 0x8B2 PUSH2 0x856 JUMP JUMPDEST JUMPDEST SWAP3 SWAP2 POP POP JUMP JUMPDEST PUSH2 0x8C2 DUP2 PUSH2 0x84C JUMP JUMPDEST DUP3 MSTORE POP POP JUMP JUMPDEST PUSH1 0x0 PUSH1 0x40 DUP3 ADD SWAP1 POP PUSH2 0x8DD PUSH1 0x0 DUP4 ADD DUP6 PUSH2 0x8B9 JUMP JUMPDEST PUSH2 0x8EA PUSH1 0x20 DUP4 ADD DUP5 PUSH2 0x8B9 JUMP JUMPDEST SWAP4 SWAP3 POP POP POP JUMP JUMPDEST PUSH1 0x0 PUSH1 0x20 DUP3 DUP5 SUB SLT ISZERO PUSH2 0x907 JUMPI PUSH2 0x906 PUSH2 0x665 JUMP JUMPDEST JUMPDEST PUSH1 0x0 PUSH2 0x915 DUP5 DUP3 DUP6 ADD PUSH2 0x6B8 JUMP JUMPDEST SWAP2 POP POP SWAP3 SWAP2 POP POP JUMP JUMPDEST PUSH1 0x0 DUP2 SWAP1 POP SWAP3 SWAP2 POP POP JUMP JUMPDEST POP JUMP JUMPDEST PUSH1 0x0 PUSH2 0x939 PUSH1 0x0 DUP4 PUSH2 0x91E JUMP JUMPDEST SWAP2 POP PUSH2 0x944 DUP3 PUSH2 0x929 JUMP JUMPDEST PUSH1 0x0 DUP3 ADD SWAP1 POP SWAP2 SWAP1 POP JUMP JUMPDEST PUSH1 0x0 PUSH2 0x95A DUP3 PUSH2 0x92C JUMP JUMPDEST SWAP2 POP DUP2 SWAP1 POP SWAP2 SWAP1 POP JUMP JUMPDEST PUSH2 0x96D DUP2 PUSH2 0x68F JUMP JUMPDEST DUP3 MSTORE POP POP JUMP JUMPDEST PUSH1 0x0 PUSH1 0x40 DUP3 ADD SWAP1 POP PUSH2 0x988 PUSH1 0x0 DUP4 ADD DUP6 PUSH2 0x964 JUMP JUMPDEST PUSH2 0x995 PUSH1 0x20 DUP4 ADD DUP5 PUSH2 0x964 JUMP JUMPDEST SWAP4 SWAP3 POP POP POP JUMP JUMPDEST PUSH2 0x9A5 DUP2 PUSH2 0x84C JUMP JUMPDEST DUP2 EQ PUSH2 0x9B0 JUMPI PUSH1 0x0 DUP1 REVERT JUMPDEST POP JUMP JUMPDEST PUSH1 0x0 DUP2 MLOAD SWAP1 POP PUSH2 0x9C2 DUP2 PUSH2 0x99C JUMP JUMPDEST SWAP3 SWAP2 POP POP JUMP JUMPDEST PUSH1 0x0 PUSH1 0x20 DUP3 DUP5 SUB SLT ISZERO PUSH2 0x9DE JUMPI PUSH2 0x9DD PUSH2 0x665 JUMP JUMPDEST JUMPDEST PUSH1 0x0 PUSH2 0x9EC DUP5 DUP3 DUP6 ADD PUSH2 0x9B3 JUMP JUMPDEST SWAP2 POP POP SWAP3 SWAP2 POP POP JUMP JUMPDEST PUSH1 0x0 PUSH2 0xA00 DUP3 PUSH2 0x84C JUMP JUMPDEST SWAP2 POP PUSH2 0xA0B DUP4 PUSH2 0x84C JUMP JUMPDEST SWAP3 POP DUP3 DUP3 SUB SWAP1 POP DUP2 DUP2 GT ISZERO PUSH2 0xA23 JUMPI PUSH2 0xA22 PUSH2 0x856 JUMP JUMPDEST JUMPDEST SWAP3 SWAP2 POP POP JUMP JUMPDEST PUSH1 0x0 PUSH1 0x60 DUP3 ADD SWAP1 POP PUSH2 0xA3E PUSH1 0x0 DUP4 ADD DUP7 PUSH2 0x964 JUMP JUMPDEST PUSH2 0xA4B PUSH1 0x20 DUP4 ADD DUP6 PUSH2 0x964 JUMP JUMPDEST PUSH2 0xA58 PUSH1 0x40 DUP4 ADD DUP5 PUSH2 0x8B9 JUMP JUMPDEST SWAP5 SWAP4 POP POP POP POP JUMP JUMPDEST PUSH1 0x0 PUSH1 0x20 DUP3 ADD SWAP1 POP PUSH2 0xA75 PUSH1 0x0 DUP4 ADD DUP5 PUSH2 0x964 JUMP JUMPDEST SWAP3 SWAP2 POP POP JUMP INVALID LOG2 PUSH5 0x6970667358 0x22 SLT KECCAK256 0xD9 SWAP1 0xD7 0xD2 0xCA 0xB5 SHL 0xF6 0xBF TIMESTAMP PUSH4 0xEB2423AA EXP 0xC2 0x4B 0xA5 0xD8 SWAP8 MSIZE 0xDC 0xAF 0x1F PUSH18 0x74F3CD0F4664736F6C634300081B003300 "},"methodIdentifiers":{"bulkTransfer(address,address[],uint256[])":"e886dade"}}}}}